:020000040800F2
:10000000780600208901000891010008930100088A
:100010009501000897010008990100080000000000
:100020000000000000000000000000009B0100082C
:100030009D010008000000009F0100082D0300083A
:10004000A3010008A3010008A3010008A301000800
:10005000A3010008A3010008A3010008A3010008F0
:10006000A3010008A3010008A3010008A3010008E0
:10007000A3010008A3010008A3010008A3010008D0
:10008000A3010008A3010008A3010008A3010008C0
:10009000A3010008A3010008A3010008A3010008B0
:1000A000A3010008A3010008A3010008A3010008A0
:1000B000A3010008A301000800000000A30100083C
:1000C000A30100080000000000000000A3010008D8
:1000D00000000000A3010008A301000800000000C8
:1000E000A3010008A3010008A301000800F002F822
:1000F00000F03AF80AA090E8000C82448344AAF188
:100100000107DA4501D100F02FF8AFF2090EBAE885
:100110000F0013F0010F18BFFB1A43F0010318473B
:10012000AC030000CC030000103A24BF78C878C1AB
:10013000FAD8520724BF30C830C144BF04680C60ED
:10014000704700000023002400250026103A28BF35
:1001500078C1FBD8520728BF30C148BF0B60704739
:100160001FB51FBD10B510BD00F031F81146FFF7E7
:10017000F7FF00F06DF900F04FF803B4FFF7F2FF5E
:1001800003BC00F057F800000948804709480047C1
:10019000FEE7FEE7FEE7FEE7FEE7FEE7FEE7FEE737
:1001A000FEE7FEE704480549054A064B7047000094
:1001B0003D030008ED0000087800002078060020CC
:1001C000780200207802002070477047704775461B
:1001D00000F02CF8AE4605006946534620F00700B3
:1001E000854618B020B5FFF7DDFFBDE820404FF091
:1001F00000064FF000074FF000084FF0000B21F011
:100200000701AC46ACE8C009ACE8C009ACE8C009DD
:10021000ACE8C0098D46704710B50446AFF30080C6
:100220002046BDE81040FFF7A8BF00000048704717
:100230001800002001491820ABBEFEE7260002008E
:10024000704710B500F002F810BD00000CB500209A
:10025000019000903348006840F4803031490860D4
:1002600000BF3048006800F4003000900198401C46
:100270000190009818B90198B0F5A06FF1D1294804
:10028000006800F4003010B10120009001E000206F
:1002900000900098012843D12348006840F01000E6
:1002A000214908600846006820F0030008600846FD
:1002B000006840F0020008601A4840681949486028
:1002C0000846406848600846406840F480604860DE
:1002D0000846406820F47C1048600846406840F4B6
:1002E000E81048600846006840F08070086000BF71
:1002F0000C48006800F000700028F9D009484068F8
:1003000020F00300074948600846406840F00200BA
:10031000486000BF0348406800F00C000828F9D18D
:100320000CBD00000010024000200240024800689E
:10033000401C0149086070470000002010B51348B8
:10034000006840F001001149086008464068104903
:1003500008400E494860084600680E4908400B49AD
:1003600008600846006820F480200860084640685D
:1003700020F4FE0048604FF41F008860FFF761FF23
:100380004FF000600449086010BD000000100240FA
:100390000000FFF8FFFFF6FE08ED00E00848C06926
:1003A00040F000500649C8610648006820F002008D
:1003B000044908600846006840F001000860704782
:1003C000001002400074004010B51048006840F270
:1003D000E731B0FBF1F04FF0E021486148170F2101
:1003E000002804DB0A07130E094A135406E00A0723
:1003F000140E084A00F00F031B1FD45400BF002046
:100400004FF0E02188610620086110BD0400002043
:1004100000E400E018ED00E04FF0E021096941F050
:1004200001014FF0E02211610021084A116000BF74
:10043000064909688142FBD34FF0E021096921F0A8
:1004400001014FF0E0221161704700000000002020
:10045000FFF7BAFF00F028F8FFF7A0FF21E0002027
:10046000104908601420FFF7D7FF4FF47A700D4948
:1004700008601420FFF7D0FF40F2FF7009490860C0
:100480001420FFF7C9FF40F6E73006490860142042
:10049000FFF7C2FF40F6FF70024908601420FFF723
:1004A000BBFFDCE7087400400548806940F00400A9
:1004B00003498861002003490860034808607047C9
:1004C000001002400008014022222022EC04000813
:1004D00000000020180000002801000804050008A2
:1004E0001800002060060000440100080000000021
:1004F00000A24A0400000000000000000102030402
:0405000006070809D9
:040000050800018965
:00000001FF
